:020000041000EA
:40000000002C0008E30700100D000000450800100000000000000000000000000000000000000000000000000000000041080010000000000000000041080010410800101D
:4000400041080010410800104108001041080010410800104108001041080010410800104108001041080010410800104108001041080010410800104108001041080010F0
:400080000448054B10B5834203D0044B002B00D0984710BD68080008680800080000000006480749091A8B10C90FC91810B5491003D0044B002B00D0984710BD68080008ED
:4000C000680800080000000010B5074C2378002B09D1FFF7D5FF054B002B02D0044800E000BF0123237010BD08090008000000004C610010054B10B5002B03D004490548C7
:4001000000E000BFFFF7CCFF10BDC046000000000C0900084C61001010B5002902D005F011F810BD0120FCE7014B01221A707047440D0008F0B5C64600B580460F001500CA
:400140001C001E6819600122290000F00BFA2660002803D1266080BCB846F0BD2A003900300005F0E7F9230000222900404600F09BF9EFE7F8B50400164D174E01002800DC
:4001800001F0C4F8002806D1A819230032002900FFF7D0FFF8BDAF192100380001F0B6F8002807D12300320039002800FFF7C2FF0028EFD080212300084A4905002001F051
:4001C000C9F90028E6D12300054A0649013001F0C1F9DFE700FA071000020000FCFF0000FCF906000000011010B500280AD000290AD000F08BFF041E01D0200010BD00F0CD
:4002000011FAFAE7014CF8E7004CF6E70F001A0010B500280DD00021012001F029F8041E05D104F089FA04F065FA0028F9D1200010BD014CFBE7C0460F001A0010B5024828
:4002400000F0E0FB30BFFDE70000011010B504F051FA10280BD180231B051B78002B0BD00748FFF7D5FF002806D1FFF7E7FF0448FFF7CEFF002800D010BDFFF7DFFFC046B9
:40028000480D000870B58CB000F0DEFD002800D001BE00230B9304A91433CB60674B0493674B8B600BA800F031FF002800D001BE04A8FFF75FFF002800D001BE62B60123BB
:4002C00006220121592001F0B7FB012302220021042001F0B1FB10220021684605F022F9584B00936946042001F004FC012303220221042001F026FC04F0FCF9102804D1CA
:4003000080231B051B78002B04D004A8FFF780FF002805D04C4B187800F06CF900244AE0FFF78CFF04A8FFF773FF002807D0474B98424DD104A90BA8FFF756FF48E000F09F
:4003400065F9592001F0DEFC042001F0DBFCFFF775FF04A90BA8FFF747FF39E014213C48FFF7DAFEA04200D90025002E13D0394B9E4207D1002D2BD004A90BA8FFF734FF6B
:40038000002425E0142004F081F904A90BA8FFF72BFF00241CE034001AE000F037F9592001F0B0FC042001F0ADFCFFF747FF2A4B1B78002B30D104A90BA801F087F9060069
:4003C00001340B9D022DADD0032DC2D0012DC5D0FA2014218000FFF79FFE0100200004F037FF002908D11D4B1B689B69B022D200944663440222DA6014211948FFF78CFEB8
:40040000A042D4D80B9D002DD1D104A8FFF700FF0028C2D02C00CAE70F4B00221A7004A8FFF7F6FE0028C6D1593001F06BFC042001F068FC00F0EAF8FFF700FF340B0008BC
:4004400024090008290100108004000802001A008813000040001A00440D0008F80F0008E093040010B5FFF7F1FE10BD10B504F0EFFE002901D1012010BD0020FCE7000088
:4004800030B583B00D0014006A4601A900F04EFE019B2B60009A9B18024A9B18236003B030BDC04604000000F0B5C64600B582B004000D001600984680218900FFF7D6FF3B
:4004C000002807D080239B009D422FD0F3072FD5002500E01E4D1F4F00F040FE6A4601A9FFF7CEFF019BA34203D8009BA34200D9194D80235B059C466744A74202D8174BEA
:400500009C4206D980221202EC231B06E318934218D2002D17D1F6070CD443461968200002F05CF9051E0ED00D4D0CE00025D2E7074DD0E74346186880229200002104F079
:40054000F1FFEAE7044D280002B080BCB846F0BD03001A00FCFF00000A001A00FFFF071004001A00F0B5CE4600B582B004000D0001921F00802189002800FFF777FF0028F0
:400580001FD00026164BA34202D8164B9C4206D980221202EC231B06E31893421AD2002E19D10123019A11001940894613420AD038682A00210004F095FF00280BD00A4E39
:4005C00009E00A4EDEE738682A00210004F0B2FF4E4600E0064E300002B080BCB946F0BDFCFF0010FFFF071002001A0003001A000A001A0010B5044B1870022801D001BE00
:4006000010BD00F06BF8FBE78104000810B5044B1B78022B01D001BE10BD00F063F8FBE78104000810B5044B1B78022B01D001BE10BD00F05FF8FBE78104000810B5054C43
:400640002478022C02D001BE034810BD00F06EF8FBE7C046810400080F001A0010B5054C2478022C02D001BE034810BD00F0A0F8FBE7C046810400080F001A0010B50B4B49
:400680001B78002B06D00A4A116880231B060B43136010BD07490022054802F099FD002800D001BE014B01221A70ECE7640D000800006440B455001010B5002901D0002A9E
:4006C00000D101BE02F02AFD10BD10B5002901D0002A00D101BE02F062FD10BD10B5FFF7CDFF10BD10B50021014802F0F9FE10BD0000644010B50B4BC122920098588021EF
:400700004902084398509858074C204098509A58812292009858014399509958214099509B5810BD00006440FFFFFEFFF0B5C64600B582B00700019190461D0000282AD08C
:4007400000292AD0174AC2239B00D458E40507D1012003F09BFF013D002DF3D112481DE0104EC225AD007459E405E40DD920800003F0A6FF7359DB05DB0DA342F0D1019AD5
:40078000A24200D9220043461A6039000548FFF793FF002002E0054800E0044802B080BCB846F0BD0000644040001A000F001A0070B50C00150000280BD0002901D106487C
:4007C00070BD0A0001000548FFF77FFF2C600020F6E70148F4E7C0460F001A00000064407047FFF73FFE72B60F4C104DAC4209DA21686268A368043B02DBC858D050FAE74A
:400800000C34F3E70A490B4A0020521A02DD043A8850FCDC084809490860BFF34F8F00F075F8FFF72FFDFEE75861001070610010080900084C1000080004000808ED00E097
:40084000FEE7FEE700B504207146084202D0EFF3098002E0EFF30880043003F087FFFEE70230800803D001300238FCD1C046C0467047EFF3108072B6704780F3108870471E
:4008800010B5002002F02EFB10BD704710B5002003F0CCFD041E00D110BD154B186002F071FF411C200004F04DFC0400114B186002F028FF411C200004F044FC04000E4B60
:4008C0001860013C0D49200004F03CFC01300C4B1870FA218900200004F034FC0130094B1860002003F0A2FD074B1860D4E7C046900400088C0400089404000840420F000A
:4009000082040008840400088804000810B5224801F0C8FE214CB022D200A3585B005B08A350E0218900635830208343635080235B04A3501A4B1B4AE2500433A0229201D7
:40094000E250194BFF22E25004F0EAFBC0225200A35801218B43A350FFF797FFFFF796FF124B1B681A6ABE201C5AE100091B52180021D1601A6A185AC3001B1AD318596081
:400980000B4A8031032002F015FB0A4802F04AF9094802F099F910BD886000100000264084050000010002008C050000F80F000868080008880D000870550010034A90236F
:4009C0005B01D358032018407047C0460000204010B5FFF74EFF084C902149016258074B1A40074B13436350034B5B68DB06FBD5FFF743FF10BDC04600002040FCFF000098
:400A00000100FA0570B50400830500D001BEFFF730FF0500FFF7D2FF032813D00B4B802292009C50902040011958094A1140094A0A431A50054B5B68DB06FBD52800FFF70F
:400A40001CFF70BDFFF7C4FFE8E7C04600002040FCFF00000300FA0510B500F047F900F00DF800F035F800F04BF810BD10B500F023F800F039F800F079F810BD10B5022135
:400A8000002002F0F9FD67220221002002F034FD0221002002F0B0FD0021012002F0ECFD044A0021012002F027FD0021012002F0A3FD10BDBF03000010B5034801F0AAFA92
:400AC000024801F0A7FA10BDA8550010A455001010B502220021042002F054FD002201211B2002F04FFD10BD10B5034801F092FA024801F08FFA10BDB0550010AC550010F8
:400B000010B5114A114C0621200001F043FF104A0721200001F03EFF0E4A0F4C0021200001F038FF0D4A0121200001F033FF0C4A0C4C0021200001F02DFF0B4A0121200073
:400B400001F028FF10BDC0461057001000033140D8560010A056001080033140685600103056001000073140F855001010B50C4801F050FA0B4801F04DFA0B4801F04AFAC7
:400B80000A4801F047FA0A4801F044FA094801F041FA094801F03EFA084801F03BFA10BD48570010445700100C570010D45600109C560010645600102C560010F455001038
:400BC00010B50121002002F013FE0021002002F03FFE10BD10B50121032002F009FE0121032002F035FE032002F0EAFD10BDFEE710B503F07FFD00281BD1144AFF231B02AE
:400C0000D4583F231C4003F065FD002806D0012003F056FD0D4B9B6C002B14DB0B4AFF231B02D45002F07EFE02F070FE012002F091FE012004F0D6F804F072F804F060F9E1
:400C400004F046F910BD0620FFF7D1FF0000274030B583B00C4C00250095002300220021200001F057FF0095002300220121200001F050FF054802F029FE002801D103B0BB
:400C800030BD0520FFF7B3FF0000314040420F0010B5084802F070FF002805D1064803F039F8002803D110BD0420FFF7A0FF0420FFF79DFF54570010400D030010B5094938
:400CC000012003F0CDF8002806D10749012003F05DF9002803D110BD0320FFF788FF0320FFF785FF4C5700101027000010B5B421002003F053FDFFF77BFF02F01FFF0021D4
:400D0000002002F0A5FD002002F048FD012002F029FD002002F0E4FC3E4B1A684323D45C03E0200003F076F8013C002CF9D10021012002F047FE002002F078FD00285ED0EF
:400D40000021002002F03EFE0021002002F050FDFFF77EFF012002F0F3FC002002F01EFD002002F0FFFC002002F0BAFC0021012002F028FE0021002002F024FE002102201B
:400D800002F020FE0021032002F01CFE0021042002F018FEFFF77CFFFFF712FFFFF78EFFFFF718FF002002F0B9FC02F0AFFD012002F0D0FD6021002003F0F0FCFFF766FD60
:400DC000154801F027F9002800D001BE134801F021F9002800D001BE114801F01BF9002800D001BE0F4801F015F9002800D001BE0D4801F00FF9002800D001BE10BD02F0CB
:400E00000DFE1223FF3398429AD10121002002F0EFFC95E7F80F00087857001074570010705700106C5700106857001010B5044803F080FE002801D0002010BD0148FCE78A
:400E4000980400080000020610B501F0E0F8041E07D0FFF701FEFFF709FE002C0AD0200010BD01F0B9FB041EF3D10449002001F001FCEEE7FFF7DAFF0400F0E7E40C000005
:400E8000704704307047063070474078704704314018704710B504000800FFF7F4FF235C172B01D0002010BD0120FCE70123037070474170704710B504000800FFF7E3FF54
:400EC0001723235410BD0431002303E00139425CD3189BB20029F9D158420004000C7047002353600B6001487047C04605001A0000B583B00100042201A804F01BFB019814
:400F000003B000BD00B583B001924018042201A904F010FB03B000BD10B582B001006B469C1D0222200004F005FB208802B010BD10B50230FFF7F0FF10BD10B504000800F4
:400F4000FFF79FFF2018FFF7E7FF10BD70B504000D00062826D90B78012B01D0144870BD0800FFF7E5FF0600C31DA3421CD88422920093421AD801002800FFF78BFF00281F
:400F800001D10B48EBE731002800FFF7D6FF040031002800FFF797FFA04201D00548DEE70020DCE70248DAE70348D8E70248D6E704001A0008001A0003001A0010B5012323
:400FC000136007330B600021FFF761FF0249082204F0B0FA10BDC046EC570010F0B583B004000E0015001848FFF74AFF01902000FFF79EFF0023336000280CD1019F002FBD
:4010000003D0124F380003B0F0BD2A0031002000FFF7D4FFF6E7042803D0062801D00B4FF0E700212000FFF732FFFFF761FF019B984201D0064FE5E72A0031002000FFF7FD
:40104000BDFF0027DEE7C0460403020103001A0004001A0070B50C0011001D00002814D0002C14D0002A14D023685E1984229200964201D9084870BDC0182A0004F05AFA41
:4010800023685B1923600020F5E70448F3E70348F1E70248EFE7C04603001A000F001A00F0B5C64600B505000F001400FFF740FF060008CC984600233B6000212800FFF785
:4010C000E6FE0200330021004046FFF7C3FF80BCB846F0BD00B583B001924018022201A904F028FA03B000BD10B50A000221FFF7F1FF10BD70B5040008001500FFF7C1FECA
:4011000001002A002000FFF7E5FF70BD002806D0002906D0002303604B60002070470248FCE70148FAE7C0460F001A0070B504000E001500012800D901BE0748FFF7A0FEE2
:40114000E4000019002E01D003683360002D01D043682B60002070BD00FA071010B50248FFF78EFE10BDC0460000000070B50500140000230B60FFF7DBFE042803D0084895
:401180000023636070BD00212800FFF780FEFFF7AFFE230001220021FFF786F9F0E7C04603001A0030B583B004000D00130000220192842101AA8900FFF740FA074B9842C0
:4011C00003D0002804D003B030BD01232B70FAE701982100FFF7BAFEF5E7C04640001A0030B583B00C000192FF2505400800FFF75DFE29002000FFF75CFE01992000FFF77A
:4012000073FF019D29002000FFF75DFE020029002000FFF76FFF01992000FFF74CFE01990731962301AA2000FFF718FA03B030BD70B50600002915D0012040423378434053
:401240001D090F221340094C9B001B596B4018091A40920013595840013901360029EDD1C04370BD01204042FAE7C046F4570010F0B583B00D00012800D901BE6A4601A937
:40128000FFF754FF041E0AD1019F009E2A0031003800FFF7CDFFBB59834200D0014C200003B0F0BD02001A0070B504000E001500FFF73EFE00233360042807D0012805D08E
:4012C000104D114B9D420FD0280070BD00212000FFF7DDFD0078012801D90B4DF1E72900FFF7C6FF051EECD100212000FFF7CFFD002D05D101230370012333600025E3E75F
:401300000023F8E703001A0002001A0070B505000E000948FFF7B4FD0400011F32002800FFF786FF6419043C2368984201D0034870BD0020FCE7C0460002000002001A00B7
:40134000F0B5DE464F4680B583B004000D00160000284AD0FFF7ECFD042808D00027274C2F60200003B0C0BCBB46B146F0BD00212000FFF78CFD8146FFF7CEFD009007005F
:4013800002212000FFF783FDFFF7C6FD87422FD8009BC71AFA1D84239B009A422BD81848FFF76EFD83461748FFF76AFD019031005846FFF7ABFF041E01D00027D0E73300ED
:4013C000002201995846FFF7CDF80190002802D02700019CC4E73168009B9C4661443A00484604F08DF8019CBAE70027064CB7E70027064CB4E70027044CB1E703001A004D
:4014000000FA0710000200000F001A0004001A00F0B5D646474680B583B082460E001400170008CF9846FFF783FD050000233360072807D81D480023636003B0C0BCBA462D
:40144000B046F0BD00215046FFF721FDFFF750FD019004215046FFF71AFDFFF749FD060008215046FFF713FD02002B00083B39004046FFF7EFFD00280FD16568220029002A
:401480004046FFF7D5FEB04201D00948D3E72300022229000198FFF707F80028CBD16168230001220198FFF75DF8C4E703001A0008001A00F0B5D646474680B583B08246F2
:4014C0000E001400170008CF9846FFF731FD050000233360072807D81B480023636003B0C0BCBA46B046F0BD00215046FFF7CFFCFFF7FEFC019004215046FFF7C8FCFFF792
:40150000F7FC060008215046FFF7C1FC02002B00083B39004046FFF79DFD0028DDD16568220029004046FFF783FEB04201D00748D3E72300012229000198FFF713F8002899
:40154000CBD00348C9E7C04603001A0008001A0002001A00F0B5DE4657464E464546E0B583B005000E0001921C1E4AD0012808D9254F380003B0F0BCBB46B246A946A0464A
:40158000F0BD2248FFF77CFC82462148FFF778FC81462300002201005046FEF7E3FF071EE7D12068ED004019FFF7A2FC804620682B1D9B465844FFF79BFCB04502D1019B4E
:4015C0009842D6D0206832002900FFF79BFC2068019A5946FFF796FC25684B461E1F220031002800FFF724FE020031002800FFF789FC2300002249465046FEF755FF070033
:40160000B7E7014FB5E7C0460F001A0000FA071000020000F8B504001500002008602000FFF786FC092801D00D48F8BD00212000FFF72DFC077801212000FFF728FCFFF7BB
:4016400057FC060005212000FFF721FCFFF750FC02002B0031003800FFF77CFF2F61E4E703001A0010B50400080011001A00313C1B2C25D8A400144B1B599F46FFF7C8FE32
:4016800020E0FFF717FF1DE0FFF770FD1AE0FFF70BFE17E00123029C2370FFF701FD11E0FFF7FEFC0EE0002353600133029A1370002007E0FFF7AEFF04E0FFF741FE01E0E9
:4016C000FFF70EFC10BDC0467C570010F0B585B005000C008F68002303930B226A441370CB68002B00D101BE2368002B09D0A368002B08D02B68012B07D91F4E300005B0BF
:40170000F0BD01BEF3E701BEF4E7E2680B2169443800FFF747FD061E0AD13800FFF7B5FB382810D03B2816D02B68012B1AD0134E0B236B441B78002BE0D1039A3900300072
:40174000FFF74EFDDAE723002A0003A93800FFF745FC0600ECE702232B6009336B4401221A70E5E70A336B440093230003AA3900FFF778FF0600DBE70F001A0005001A000D
:4017800070B5002811DB8308134DC0339B005C5903221040C000FC3216008640B44389010A40824022435A5170BD0F230340083B9B0806339B00094A944663445C680322CD
:4017C0001040C000FC3215008540AC4389010A40824022435A60E7E700E100E000ED00E010B5072900D901BE1F2A00D901BE104B1B689C69001BC0095B6900011B18032978
:401800000AD81C68C9001F20884084431F2002408A4022431A6010BD04395C68C9001F20884084431F2002408A4022435A60F2E7F80F000830B5082900D901BE012A00D918
:4018400001BE846901231D008D40AC4313408B402343836130BD000030B5082900D901BE032A00D901BE4900074B1C688423E35C1818046803231D008D40AC4313408B4039
:401880002343036030BDC046F80F0008064B1B681A6880239B019C4660448000815880231B060B4383507047F80F0008054A80239B019C466044800083585B005B0883503E
:4018C0007047C04600002040082819D88000114B1B589F460A20012917D070470820FCE70C20F8E70D20F6E70E20F4E70F20F2E74B1EDBB2012B01D80E20ECE70820ECE75C
:4019000001BE0820E7E70B20E5E707231840E4E70020E2E7D45E0010C008704710B50400FFF7B4FF200002F027FE002805DB1F22024001239340014A136010BD00E100E08D
:4019400070B5050002F018FE040001238340DB435BB2094A11780B401370290002F0F2FD200000F0D1FC01002000FFF709FF2800FFF79CFF70BDC046150F0008F8B5EFF3C8
:401980000580103800B202F011FE012787403AE0274B1B689D6945E00221236860689847A468002C21D0227B07231340EA69DA40D207F5D5082B00D901BE1D4A1168842285
:4019C0008A5C521912685900CA40032108001040010001380128E0D9082B00D901BE2A69DA40D207D8D50121D7E70023072B07D86A6901229A406A616A690133DBB2F5E704
:401A00000123B3409F43002F10D0380003F026FCC0B21F26361A0E2EBAD8054B1B689D69F301ED18034BB200D458BAE7F8BDC046F80F00088C080008F0B589B00F000292F6
:401A40000393284B1B78002B16D1002405E0264BA2000021D1500134E4B20E2CF7D9002305E0224A590000248C520133DBB2052BF7D91C4B01221A7004AB0B221A70C608AD
:401A80005E70072505409D7007AA198811809B78937006AB1188198092789A7005A81A8802809B78837000F0B5FA041E02D0200009B0F0BD39000298FFF706FF02000E2EEE
:401AC0000BD80B4B1B689869F301C01800230093039B290001F01EF8E9E7054B1B689869F4E7C046F00E00088C08000880080008F80F000870B505000E00FEF7BAFEE9083D
:401B00008A000F4BD218136802E01A0008329B68002B05D013681C7BAC42F6D19B681360002E08D03368002B08D03573044B8900CA58B260CE50FEF7A0FE70BD01BEF4E716
:401B40008C080008F0B583B0050001921F00C408772840D8314B1B689A69E3019B18072606405B69F340DB0701D5002F0BD00E2C37D82A4B1B689B69E2019B185A69012231
:401B8000B2405A615B690E2C2FD8244B1B689869E301C0180A003100FFF75EFE0E2C28D81E4B1B689869E301C0183A003100FFF741FE2800FFF7B0FE0500002F25D10E2C84
:401BC0001BD8164B1B689B69E4011B199B695B0617D003B0F0BD114B1B689B6907260640BFE70E4B1B689B69C8E70C4B1B689869D0E70A4B1B689869D7E7084B1B689B69B7
:401C0000E4E72800FFF79CFEE3E7054A019900F093FB2800FFF782FEDBE7C046F80F00087D190010F0B585B0060001910024052C2DD8250003AF174BA10059180422380060
:401C400003F078FCBB78B34202D00134E4B2EEE7F308772E17D8104A12689069DB01C018072131400022FFF7BBFD03AB59784631C9B2019800F024FB002809D1074B6D0010
:401C80000022EA5204E0044B1B689869E8E7044805B0F0BD34580010F80F0008800800080008020470B582B006000024172C21D801AD114BA10059180422280003F03AFCF9
:401CC000AB78B34202D00134E4B2EFE7F308772E0CD80A4A12689069DB01C018072131400022FFF77DFD002002B070BD034B1B689869F3E70248F7E74C580010F80F000899
:401D000001080204F0B5CE46474680B587B00500424B1B78002B7AD0FF2879D0C708B9460E2F24D83E4B1B689B69FA019B180722024090469A690121404681408A439A619E
:401D400000212800FFF7D6FE2800FFF7E5FD4B460E2B13D8324B1B689A69FB019B189B695B060FD02800FFF79DFF00240FE02C4B1B689B69072202409046DBE7284B1B68E1
:401D80009B69ECE7FFF7DCFDECE70134E4B2052C13D803AE2349A300C9180422300003F0C9FBB378AB42F0D11F4B6200D15A0029EBD02800FFF736FFE7E74B460E2B22D87C
:401DC000174B1B689869FB01C018002300930022414600F09FFE03A80B2303704770043B2B40837005AA038813808378937004AB1188198092789A701A8802809B788370B3
:401E000000F032F904E0064B1B689869DDE701BE07B0C0BCB946B046F0BDC046F00E0008F80F000834580010800800080338C3B2182B13D898000B4B1B589F460A480EE0CB
:401E40000A480CE00A480AE00A4808E00A4806E00A4804E00A4802E00A4800E0002070470948FCE7F85E00100860001034600010306000102C6000100C6000100460001021
:401E800000600010FC5F0010386000100338C3B2182B0BD89800074B1B589F46012006E0022004E0102002E0022000E0002070471A20FCE75C5F0010F0B5D6464F4680B51C
:401EC00083B004000D0001921E00042830D01D2840D82200214B6100CB5A9946631C1D2B2AD8DBB21D495B005F5A012393401C4A134224D02000FFF799FF824637800028A6
:401F00001FD02000FFF7C2FFA8421AD96B0052469B5A4B449BB2019A9446634433806B1C83420EDA5D005346EB5A4B449FB208E001910D250524CCE781277F00D5E74D4410
:401F400035803388BB4207D2002003B0C0BCBA46B146F0BD0348F8E70248F6E7C05F0010280B0A0C000D020410B582B00400080011001A006B460633FFF79EFF00280ED19A
:401F80006B4606331B88D908C9B207221A40615C012393400B405A1E9341049A137002B010BD30B583B00400080011001A006B460633FFF781FF00280BD16B46DA88D30829
:401FC000DBB207210A40E15C012595402A000A43E25403B030BD30B583B00400080011001A006B460633FFF767FF00280DD16B4606331B88DA08D2B207211940A55C012329
:402000008B40DB435BB22B40A35403B030BD00207047000070B584B00400FEF72AFC060021786278A3780E480F256D440095FFF79BFF051E05D10F236B441B78002B06D0F7
:40204000084D3000FEF719FC280004B070BD21786278A3780248FFF7A4FF0500F1E7C046F40E0008010D020470B50400FEF701FC050021786278A3780448FFF7ACFF002893
:4020800000D001BE2800FEF7F8FB70BDF40E0008020000230020002B00D07047002A00D018000133DBB2F6E710B50400FFF7F0FF200010BD0020122808D8064B1B5C002BDB
:4020C00002D10130C0B2F6E740B2704701204042FBE7C046985E001070B505000C00FFF7E9FF0300114A525D002A10D0104A11688A687420085A1218A400EB1A10337620C1
:40210000095A4B43E418A4182068C0B270BD084B1A6893687421515A5B18A4007621525A6A43A418E4182068EFE7C046985E0010F80F0008F8B5CE46474680B507001500E8
:402140001C0008AB1B78984609AB1E78234B1B5C002B17D0411ACDB22800FFF7A5FF000204432800FFF794FF000404431C482043002E04D04246002102F036FF24E002F06E
:402180008DFF21E0FFF790FF030299461D433800FFF77EFF0304280018434A46224313438021C9051943002E12D10E4B1A6893687421515A5B18A4007621525A7A43A41884
:4021C000E418002323600020C0BCB946B046F8BD4346002202F0A2FEF6E7C046985E001000100040F80F0008F0B5CE4600B584B00C0002924508EDB2012318408146FFF70B
:4022000059FF03906B2C45D8264B1F5D1B57002B13DB122F40D8244B1E5D00243A00234B7900CB5AA34230D9214BB900CB581B5DAB4208D00134A4B2F0E77F233B40C2B274
:402240009B18DFB2E5E71B4B9B5C002B01D0A64224D1029D022D07D031003800FFF73CFF00281DD1002D0ED0E2B26B46197B029D013D6B425D4101954B4600933300380092
:40228000FFF758FF02E0002000E00B4804B080BCB946F0BD0848F9E70748F7E70648F5E70648F3E718590010AC580010AC5E0010B4040008985E0010010C0204000C0204B7
:4022C00010B50222FFF790FF10BD000070B54300C01885B22A00002010E0D308D1B207241440EEB2891BC9B2064EF35C2341012423408B401843C0B2013292B2EB1C9A42D5
:40230000EBD370BD180F0008F8B506000024FF2700E00134AD2C0CD8A5B2280002F02CF9B042F6D12800FFF7D1FF8742F1D90700EFE73800F8BD0000F0B583B006000F002D
:4023400011000023072B13DC0B4A15782C001C41E40701D50133F5E70120984005431570DBB2684603804680019702F051F900E0024803B0F0BDC046150F0008020D0204DD
:40238000F0B5C64600B50400884616001F0005E0012342461370002B1AD0E4680E4DAC4216D02568002DF8D020793040B042F4D163793B40BB42F0D0A26839003000A84754
:4023C0000028E5D1012F01D00123E2E70023E0E7200080BCB846F0BD89070000F8B504000F00160000E0E468BC420ED02568002DF9D023793340B342F5D163799B07F2D421
:40240000A26802213000A847EDE7F8BDF0B5D646474680B585B00D0000F036F90400804602AB0122DA71102828D8214BC340DB0724D5204B1E68204B1B689A4602ABDF1D14
:4024400023002A0039003000FFF79AFF01903B78002B19D1504602AB07331B78002B02D14346012B17D002AB07331B78002B1DD0002005B0C0BCBA46B046F0BD0D4B1B68B3
:402480009A460D4B1E68D9E723002A0039005046FFF776FFDFE72A0001005046FFF79EFF2A0001993000FFF799FFDCE70348E0E7040101000005000804050008FF00420041
:4024C00070B50C0020212000FFF7A0FF0500042C01D0280070BD002001F0A8FF034902F031FE0100012002F059F9F2E740420F0070B50C0010212000FFF788FF0500082C2D
:4025000001D0280070BD002001F090FF034902F019FE0100002002F041F9F2E740420F0010B508000821FFF771FF10BD10B50400FFF76CFF042C02D0082C15D010BD0F4B34
:402540001B68DB0705D50E4B1B78002B02D0012300E000230B4A1370002BEFD0074A136801218B431360E9E7064B1B78002BE5D0024A136801210B431360DFE710E000E047
:40258000F00F0008F10F000810B50800012903D1044B1B88002B03D10221FFF7C7FF10BD0148FCE7F20F0008FF00420010B508000121FFF7BBFF10BD70B504000D00160076
:4025C00004491C2202F0B6FF26602571200002F0B1FA70BD6C60001010B502F071FC002808D1194A19480021FFF7E6FF002804D1174810BD02F0E8FAF3E7164A164801212B
:40260000FFF7DAFF002801D11148F2E7134A14480221FFF7D1FF002801D10D48E9E7114A11480321FFF7C8FF002801D10848E0E70E4A0F480421FFF7BFFF002801D0002097
:40264000D7E70348D5E7C046AD250010CC0F0008011A020489250010B00F000821250010940F0008F12400105C0F0008C1240010780F0008002800D001BE024B8000C15072
:402680007047C046F40F0008042806D006D8012803D0022801D001BE012070470828FCD0F9E70000014B18607047C046F80F0008074B1A683723D35C834200D801BE044B70
:4026C0001A68136ABE21525A504318187047C046F80F0008C00543425841C0B270470000A0231B0698422BD015D880282AD009D8102829D0402801D11B482DE000282BD08E
:402700001A4829E080235B0098421FD0184B984222D0164820E0174B984219D008D8164B984217D0154B984217D1A420C00313E0134B984213D0134B984212D112480BE09C
:40274000002009E0114807E0114805E0084803E0104801E0A020C00370470448FCE70E48FAE70248F8E7C04602005000FF00520006005200030000F0090000A0010000F00F
:40278000040000F0050000F0030052000500520001005000010052000200520010B50020FFF786FF0A4B1C68C023E3581B181B68002B0BDB074B1868FFF792FF6368012227
:4027C0009A6063689B68002BFBD110BD0248FCE7F80F00080C1000080200500070B504000D00FFF777FF002827D0002D27D0FEF74DF8144B144A1A6000225A609C60DD6030
:40280000124B1A685623D35C002B10D001F02BFEFA21890002F096FC01000D4802F092FC0C4BC1188020400002F09AFE06E080200021400002F094FE00E0074870BD06483F
:40284000FCE7C0460C10000800010005F80F0008C0EA2101482600000600520010B5072900D901BE1F2A00D901BE104B1B689C69001BC0095B6900011B1803290AD81C68E5
:40288000C9001F20884084431F2002408A4022431A6010BD04395C68C9001F20884084431F2002408A4022435A60F2E7F80F0008072900D901BE012A04D901BE01238B4022
:4028C00083607047002AF9D101238B404360F8E730B5072900D901BE0F2A03D8012A01D0092A00D101BE8900074B1C688523E35C181804680F231D008D40AC4313408B404E
:402900002343036030BDC046F80F000830B5072900D901BE012A00D901BE074B1C688623E35C1818046801231D008D40AC4313408B402343036030BDF80F000830B508290C
:4029400000D901BE012A00D901BE846901231D008D40AC4313408B402343836130BD000030B5082900D901BE032A00D901BE4900074B1C688423E35C1818046803231D0066
:402980008D40AC4313408B402343036030BDC046F80F0008F0B5D6464F464646C0B507000E001400002800D1ACE0002A00D1ABE0072900D901BE2368012B00D901BE636805
:4029C0000F2B03D8012B01D0092B00D101BE237A1F2B00D901BEE368032B00D901BE2369012B00D901BE6369012B00D901BE236A012B00D901BE636A012B00D901BEA36AA2
:402A0000012B00D901BEE36A032B00D901BE236B072B00D901BEE369032B00D901BEA369012B00D901BE01252B00B3407000103003229146110081400B439C46334B984637
:402A400019688723C95CC9190B68624693439C46A3692B40B340624613439A46E2694B4613401A008240534613430B60227A31003800FFF7F3FE626831003800FFF728FF68
:402A8000E26831003800FFF76BFF226931003800FFF754FF626931003800FFF737FF43461A688823D25CBA181068773398469843236A2B40656A6D00AC46022561460D4094
:402AC0002B43A56AA90004250D402B43E56AE90018250D402B43256B6D01414629400B43B100FE25AD0029408B4003431360226831003800FFF7DCFE0020E0BCBA46B1467C
:402B0000A846F0BD0248F8E70148F6E7F80F000801005A00F8B506000C0015001F0006AB1A78072900D901BE0F2D03D8012D01D0092D00D101BE012F00D901BE1F2A00D97D
:402B400001BE21003000FFF789FE336801210A00A24093433940A14019433160074B1A688523D25C92191168A400763B1800A04081432B40A3400B431360F8BDF80F000850
:402B8000094B1A68C023D3581B181B68002B09DA80235B02994200D301BE0904090C4160002070470148FCE7F80F000801008A000368002B0ADAC26080235B02994200D356
:402BC00001BE0904090C8160002070470048FCE701008A0000290BD0074B1A68C023D3581B181B68002B05DAC3680B600020704701BEF1E70148FAE7F80F000801008A0018
:402C0000074B1A683723D35C834200D801BE044B1A68136ABE21525A504318187047C046F80F0008034B1B68002B00D07047014B1860FBE720100008F8B507000D0016003B
:402C40001F4A1268002A39D01D4A14682C2078432418FF22100018402060190A0A4062601B0CA360FFF7CCFF20616368154A116838228A5C934200D301BE124A1268126AD8
:402C800080335B01D2186261A368802149028B4200D301BE802149028B4200D301BE1B04190C0B439360E66125620023A361069B002B02D000229B5EA381F8BD01BEC3E742
:402CC00020100008F80F0008F0B58FB00400082200210CA802F026FC002C40D06368032B00D901BEE36A002B3BD0236B002B3AD007A80300220062CA62C322CA22C302AED9
:402D0000230014333200A2CBA2C222CB22C20822835E0CAD2B80079B9BB217336B80089B0D93E16AA26A0B9B0A980095FFF784FF069B0598002200920021FFF77DFF216BC1
:402D4000280001F065FC0022AB5E002B05DB1F221A4001239340054A13600FB0F0BD01BEBCE701BEC1E701BEC2E7C04600E100E0F0B5CE46474680B583B00400171E019370
:402D800042D0264B1B68002B40D0244B1D682C235C432C194B43ED186868214B1A683823D35C9946190002F053FA012633008B401B0498466068494602F04AFA33008B40EC
:402DC0002269002A24D0A869002823D11268002A22DA3A681204120C3A6041460A433A602269D7600122AA61019A6A622269802149028B4200D301BE1B041B0C936003B066
:402E0000C0BCB946B046F0BD01BEBAE701BEBCE70448F4E70448F2E70348F0E720100008F80F000804028A0007028A0070B582B004000023019300282BD02369002B2AD0F4
:402E40006369002B29D0236A002B28D06369DD682A0C0BD012041A601B682069204B1A68C023D3581B181B68002B1ADB2D042A0C002D0AD063691A601B68636A002B2AD0FA
:402E80009847002363620023A36163691B6802B070BD01BED1E701BED2E701BED3E701BED4E701A9FFF796FE00280ED101980268160CFF231340E2699A4207D9226A9B0011
:402EC000D358002B02D0984700E0002620693100FFF756FECAE7A36A002BD4D09847D2E7F80F000810B50200064B1B68002B07D0044B1B682C2050431818FFF797FF10BDB6
:402F000001BEF5E720100008074B1A683723D35C834200D801BE044B1A68136ABE21525A504318187047C046F80F000870B50D001C4B1A683723D35C83422ED900292ED006
:402F40000B681F2214001C401A4201D0164825E0FFF7DAFF154B186005E06B68A2009B1800221A6001342B685B09A342F5D80021FFF706FE0D4B18682A000021FFF718FE25
:402F8000002801D00A4809E0084B18680021FFF7F7FD002802D0064800E0034870BD0248FCE7C046F80F000803018A002410000801018A0010B50C00002A03D000290BD1F4
:402FC000084810BD002901D00648FAE7FFF79CFF054B18602000F4E704490C604A60FFF7A5FFEEE703018A002410000878080008F0B5C64600B50C001B4B1B68002B2FD08E
:40300000DB681A6882422DD947091F220240012595405E6800290FD000239846124B18680368002B16DABF00F61933681D4207D0AB433360002504E0FDF71BFC8046EDE733
:403040000A4D0021FFF79CFD002C05D0280080BCB846F0BD064DF7E74046FDF70EFCF5E7024DF3E7034DF1E724100008020188000301880004018A000C4B1B68002B0FD091
:40308000DB681A6882420DD941091F2210401E3A8240586889000B581A4205D0044802E0044800E0044870470448FCE724100008010188000201880004018A0000018800DA
:4030C000074B1B68DB6CC340DB0700D401BE044B1B681B6910308002C3580F2018407047F80F000830B5C0239B00C45808252B002340254206D000230DE0D024A400045940
:40310000CC5401339342F8D330BDD024A40005595C000D5301339342F7D3F5E710B51400C2239B00C358DB05DB0D9A4200D31C002200FFF7D7FF200010BD30B580239B0048
:40314000C45808252B002340254206D000230DE0CD5C9024A400055101339342F8D330BD5C00655A9024A400055101339342F7D3F5E710B5140003681B050ED5802282238D
:403180009B00C358DB05DB0DD31AA34200D81C002200FFF7D2FF200010BD4022EFE7F8B506000D00140080239B00C35808271F4002E00300ED18241A002C08D0220029008B
:4031C0003000FFF7D6FF002FF3D04300F2E7F8BDF0B5002800D16DE1002900D16CE10B78022B00D901BE4B7B023BDBB2062B00D901BE8B7B002B04D0022B02D0032B00D03B
:4032000001BE2123CB5C012B00D901BE2823CB5C012B00D901BE0B78012B07D98B7F002B09D04B68013B062B05D903E04B68083B082B00D901BE8B68053B042B00D901BE31
:403240004B69FF2B00D901BE8B69FF2B00D901BE8B7C002B06D00B78002B02D18B68092B74D001BE4C6B964B1C4200D001BECC6B944B1C4200D001BE0B78022B6AD04D6848
:40328000013D0B7F002B6AD080235B028C68082C67D88024240123430F242C4023438024A404234303600C6B03681B055BD580239C4200D301BE8C6B03681B0555D580239D
:4032C0009C4200D301BE4C6A03681B054FD580239C4200D301BE0B781B06C024A404234003644B7F002B44D040238C7C002C42D08024E40023430C7C002C3ED08024640082
:4033000023434C7C002C3AD08024A4002343CC6A013C2404F0252D032C4023434D7B013D07242C4023438D7B2D0130242C40234383640B7B002B24D080246400CB7B002B65
:4033400021D10B78022B46D000231EE08B7B002B88D086E78B7F002B91D1002591E7002394E7002497E74023A2E74023A8E74023AEE70023B9E70024BCE70024C0E70024BB
:40338000C4E70024DAE780239B001C438D68013D0F231D402C43C026B60084514D69FF242C408D692D04FF273F043D402C43C425AD004451CC6A85592B4003339C4201D3EB
:4033C000102C00D901BECB7F002B07D00B78012B60D0002503E080239B00D6E700254C7B013C072323402B438D7B2D0130242C40234343640B7B002B4FD080256D008C68CE
:40340000013C0F2323402B430C78012C47D0002423438024A40003510C6BFF232340C124A40003512023CB5C002B3BD080239B0421240C5D012C37D00024234328240C5D82
:40344000012C34D0002423434D6AFF2425402B4303658B6B1C4081239B00C4504B6B1A4C23401A4C0351CB6B194C2340194C0351002A23D00023536013609360D3601362E6
:40348000D361D3625363897F3033D154124B93630020F0BD80256D00A1E70025AFE780246402B5E70023C3E780246404C5E780246402C8E70948ECE70848EAE70020E8E7D0
:4034C00092F4FFFF8CF8FFFF6D0B0000C80F000073070000880F0000EFCDAB000160AA0003685B005B080360002904D000234B600B600B62CB62704710B5002814D10329E3
:403500002ED8FF2A2ED81A4B186883687C24005B1B188900C9180B68164803401206120C1A430A60002002E0012801D0124810BD072919D880235B029A4217D20C4B1868FD
:4035400083687E24005B1B188900C9180B680B48034012020A48024013430B600020E6E70548E4E70448E2E70348E0E70248DEE7F80F0008FF00FFFF01004A00FF0000FFC4
:4035800000FFFF0030B51A4B1B6846241C5D844227D9032927D8002901D1032A0FD9012905D0022906D0032907D012481AE0072A05D9F6E7012AF6D801E0002A15D1792492
:4035C0001D5D763C2140A94075341C5D22409C680A43C0239B009C46604480000251002000E0044830BD0348FCE70248FAE7C046F80F000801004A0070B50B00032833D851
:40360000002801D103290FD9012805D0022806D0032807D0164826E0072B05D9F6E7012BF6D801E0002B21D1124A14687B22A25C032191407822A55C0232A25C2E009640FA
:4036400031437922A65C763A0240B24011432B40A068194380231B060B438022D2008350A3689B58002070BD0148FCE70048FAE701004A00F80F000810B5032827D80028C8
:4036800001D103290FD9012805D0022806D0032807D011481AE0072905D9F6E70129F6D801E0002915D10D4B1A687923D45C763B0340A3407820105C014090680B43802254
:4036C000D20513438022D2008350002010BD0248FCE70148FAE7C04601004A00F80F0008064B1B681A688C215B58D218136804490B400002034313607047C046F80F000878
:40370000FF00FFFF044B1A6813688C2152589B181868000AC0B27047F80F0008012800D901BE054A136805490B400002C0218900084003431360704700002740FFFCFFFFCC
:4037400010B50300032800D901BE054CA021C90060580322904313401843605010BDC04600002640064B1B681A688C215B58D21813681B021B0A0006034313607047C046C3
:40378000F80F0008044B1A6813688C2152589B181868000E7047C046F80F0008064B1B681A6890215B58D218136804490B400002034313607047C046F80F0008FF00FFFF0F
:4037C000084B1A684423D35C834209D9064AE0308000815880231B060B438350002070470248FCE7F80F00080000264001004A0010B50B4B1A684423D35C83420CD90F2940
:403800000CD8084CE030800003590F2293430A4013430351002010BD0348FCE70248FAE7F80F00080000264001004A00064B1A684423D35C834200D801BEE0308000034BC0
:40384000C3580F2018407047F80F00080000264010B50C4B1A684423D35C83420DD903290DD8094CE030800003593022934309010A4013430351002010BD0448FCE70348BC
:40388000FAE7C046F80F00080000264001004A00074B1A684423D35C834200D801BEE0308000044BC3581B09032018407047C046F80F000800002640034B1B690420184082
:4038C000431E9841C0B270470000274010B504000A4A136808210B43136003E0012000F0EFFE013CFFF7E8FF002801D1002CF5D1002C01D0002010BD0148FCE70000274018
:4039000002004A0000207047002070470349044A885880231B0603438B507047000026400C050000084AC0235B00D3580122100018401A4206D10449044A8B585B005B084B
:403940008B5070470248FCE7000026400C05000003004A00064A074BD35801229343002800D1002213430249024A8B507047C046000026400C050000014B18687047C0465E
:4039800034100008084AA623DB00D25803231340032B06D0044AA623DB00D3580120184070470220FCE7C0460000264010B5FFF7E9FF022801D0002010BD014B1868FBE727
:4039C00030100008124B1A684223D35C83421BD9042911D94B1EFF3B9BB2132B16D81F220A400C490300C0339B005A50D030800004234350002008E007230B40D0308000CE
:403A0000044A8350002000E0034870470248FCE7F80F00080000264001004A0003000C4A116842228A5C824200D801BE1A00D03292000849505807221040042800D070472C
:403A4000C0339B005A581F231340FC301843F6E7F80F00080000264010B52A4B1A684223D35C834200D801BEFFF7D8FF88235B0098422AD012D8022824D008D800283ED027
:403A8000012802D1FFF778FF10BD0020FCE7032802D1FFF737FFF7E70020F5E789235B00984229D01423FF3398421BD01223FF33984205D1FFF700FF002810D10020E3E7C2
:403AC0000020E1E7FFF772FFDEE70F4A0F4BD358002B01DB0020D7E780200002D4E780200002D1E7084A0A4BD358002B01DB0020CAE780200002C7E7FFF706FFC4E705484B
:403B0000C2E7C046F80F0008000026400C0500003C05000000127A00024AB023DB00D058C00F704700002640034AB223DB00D358012018407047C046000026400B4BB1208A
:403B4000C00019580A4A1140802292050A431A50B021C9005A58520052085A5005495A58520052085A5000207047C04600002640FFFFFFCF8C05000070B5041E00D175E07A
:403B8000FFF7CAFF002800D074E022688023DB029A4200D301BE23689B039B0BE279002A00D165E08022520413433349B022D2008B50A28880239B019A4200D301BE22894D
:403BC00080239B009A4200D301BEA388DB04DB0C2289120429490A4013432749284A8B50A37A0F2B00D901BEE37A0F2B00D901BEA28980239B019A4200D301BEA27A0F2354
:403C00001340E17A0901FF220A401343A28912021C490A401343A27B1207C02189050A4013431549B122D2008B50A379042B00D901BE228A80239B009A4200D301BE0E4813
:403C400011494358114A1340A2791202E025ED002A401343435043580D4A1340228A1204064C224013434350002070BD01BE87E7002299E70748F8E7000026400000FF01D9
:403C80008405000000FF1F008C050000FFF8FFFFFFFF00FE03004A0010B5002832D01A49B023DB00CB589A03920B02608022520413405A1E9341C371144BCB58DA04D20CC6
:403CC00082801B0CDB05DB0D0381B123DB00CB580F2214001C4084721C092240C2721A0AD204D20C82811B0F032213408373084BCB58190A04320A4082711B0CDB05DB0DBD
:403D0000038210BD01BECAE700002640840500008C05000070B505002649274A885880231B0603438B502C0003E0012000F0C8FC013C204AB223DB00D3585B0701D4002CA9
:403D4000F3D11C48B121C90042581C4B1A4080239B0513434350002D01D0002C0CD01549B022D200885880231B0603438B5003E0012000F0A5FC013CFFF7D6FE002801D196
:403D8000002CF5D1002D01D0002C0ED00949B122D2008858C0239B0503438B50002D02D0002C05D00025280070BDFFF7C7FEF5E7034DF8E7000026408C050000FFFFFFCF8B
:403DC00002004A000138074B1A684323D35C834200D801BE8130FF308000034BC058C00F7047C046F80F0008000026400138074B1A684323D35C834200D801BE9130FF30C4
:403E00008000034BC358012018407047F80F00080000264070B501380D4B1A684323D35C834201D80B4870BD0B4D8130FF30840062590A4B1A4080239B0513436351012075
:403E400000F03EFC63595B005B0863510020EAE7F80F000801004A0000002640FFFFFFCFF8B504000D002F4B1A684323D35C834201D22D48F8BDFFF7A5FF002845D1AA7862
:403E8000931EDBB20E2B42D86B78002B41D0122B41D82E783000E978002932D01327B8423BD300292FD03827B84238D8013C2879022816D07F2030401B02F82676013340A5
:403EC00003431204F820400302401343C9068022120511400B4322008132FF3292001349535012498134FF34A4006358104A13402A791207C02080050240134363500020DA
:403F0000B8E71627CBE77027CEE70A48B2E70648B0E70548AEE70448ACE70348AAE70248A8E7C046F80F000801004A0000002640FFFFFFCF03004A000138114B1A68432305
:403F4000D35C83421AD98130FF3080000D4BC3587F221A400A70180A1F2210404870180C02408A70802212051A40501E8241CA701B0F032213400B71002070470248FCE7A7
:403F8000F80F00080000264001004A0070B50C00461E2A4B1A684323D35CB3424BD9284933008133FF339B0058588022120602435A50250003E0012000F082FB013D330082
:403FC0009133FF339B001E4A9B58DB0701D4002DF1D1002C01D0002D19D033008133FF339B00174A9B58C0229205134080229205934201D0002070BD114A8136FF36B6001F
:40400000B158C0239B050B43B3500020F3E70C4C8136FF36B60032590A4B1A4080239B0513433351012000F04BFB33595B005B0833510548DFE70548DDE7C046F80F0008FA
:4040400000002640FFFFFFCF02004A0001004A00F8B5042928D00AD801291BD0022904D1844B00221A70002693E0834E91E008290ED1824B1B88002B00D1DCE0804CFFF75E
:4040800081FC022800D17EE0002C7CD0013CF6E7794E7EE07B4B1B78002B00D0E8E0754B01221A70002674E0744B00221A80764B1A80002405E02000FFF784FE00280BD1F5
:4040C0000134724B1A684323D35CA34259D3002CF1D1FFF721FDF1E72000FFF79FFC02280CD0002CECD16A48B121C9004258694B1A4080239B0513434350E1E7002C15D131
:404100006348B121C9004258624B1A4080239B051343435000212000FFF754FC0123A3409BB2564A11880B431380C9E7631E22008032FF32920056495158C022920511429B
:404140000CD01A008132FF32920051495258C02189050A40802149058A4206D10122A24092B24949088802430A8049488133FF339B001958474A1140802292050A431A50B5
:40418000C8E7002605E0002C52D1434E394B00221A703000F8BD013CFFF7C6FC002801D1002CF8D1002C0AD0002D26D13849B122D2008858C0239B0503438B502E00013534
:4041C000324B1A684323D35CAB42DFD30123AB409FB22A4A12881342F1D002212800FFF7F1FB002DD8D000E0013C2800FFF7FEFD0028D7D1002CF7D1D4E7234B1B883B42C3
:404200000AD023492B008033FF339B005A58214802405A500026D2E71D492B008033FF339B005858C022920502435A500026C6E70025194EC4E7FFF76FFC002814D10026E0
:40424000A4E7013CFFF770FC002801D1002CF8D1002C0BD00E49B122D2008858C0239B0503438B50002691E7054CEBE70A4E8DE7014E8EE72C100008FF0042002A10000886
:4042800040420F002D10000828100008F80F000800002640FFFFFFCF02004200D0B588B003A8FFF7F9FCFFF737FC002807D003AB9B7B022B01D0012302E0002300E00023FA
:4042C00003AA039F96883000D279002A21D00224002B20D000281FD00020FFF7BDFB3A000023002100F0F8FF00900191220000233000002100F0F0FF02000B00C90756085E
:404300000E435F08009801998019794100F0C4FF02E00124DCE7002008B0D0BDF0B5CE4600B584B00400304B1B6843229A5C002A51D0002855D042229B5C834200D801BE10
:40434000294B1A684323D35CA34201D2002543E002A92000FFF7F0FD051E01D000253BE02000FFF72FFD002807D002AB1B79022B01D0012202E0002200E0002202AB1978E9
:4043800089465F789E78002A26D0002F21D0002E01D1350020E02000FFF75EFB4A460023002100F099FF00900191320000233800002100F091FF02000B00C90754080C4329
:4043C0005D08009801990019694100F065FF050002E03D0000E00025280004B080BCB946F0BD0500F8E7C046F80F000810B504000D4B1A684223D35C834200D801BE002C6A
:4044000009D0094B1A684323D35CA34208D22000FFF722FB10BDFFF741FF0028FAD1F6E72000FFF77BFFF8E7F80F000870B50600FFF72EFA0500012484403000FFF7F6F9A9
:40444000FFF7D4FF64082018E84070BD10B50020FFF7ECFF0400FFF795F9411C4808001900F070FE10BD10B5FFF7F0FF0400FFF749F9411C4808001900F064FE10BD000070
:4044800070B5002811DB8308134DC0339B005C5903221040C000FC3216008640B44389010A40824022435A5170BD0F230340083B9B0806339B00094A944663445C680322A0
:4044C0001040C000FC3215008540AC4389010A40824022435A60E7E700E100E000ED00E010B5174B1B682C229A5C1F2A12D884081F2822D803221040C000FC3282401B680E
:404500002033A4001B191C688140614011406140196012E040229A5E0BB29A420ED007220240074B1B68186880231B061343802292019446614489000B5010BD01BEEEE769
:40454000F80F000810B50B4B1B682C229A5C1F2A0AD91A6880239B019C46614489008B585B005B088B5010BD4022995AFFF7B8FFF9E7C046F80F00080B4B1A684023D35EA1
:40458000116880229201821892005258002A01DB18B2704780239B019C4660448000425807231340F4E7C046F80F00080A4B19684023CA5E072318400B68882149018C4689
:4045C000634480001B181968002901DB90B270471A689205920DF9E7F80F0008094B9A68094B9A4204D01030084B8000C0587047002905D01030044A830098589950F6E73A
:4046000001BEF7E700ED00E0000400080000001070B504000D00002830D04368032B00D901BE0023E05E002815DB6188FFF758FF0023E05E6168FFF723FF114B9A68114B7A
:404640009A4201D0002070BD0023E05E2900FFF7C5FF0020F7E761680223E05EFFF710FF074B9A68074B9A4201D00748EBE70023E05E2900FFF7B2FF0348E4E70248E2E7FF
:4046800000ED00E0000400080100560070B504000A4B19680120404200F054FD050005E0064B18686843FCF7DBF8641BAC42F7D8024B18686043FCF7D3F870BD8404000894
:4046C00010B5034B1B785843FCF7CAF810BDC04682040008054B802212069A649B6C002B01DB002070470248FCE7C04600002740030046000E4B8022120198585B68FF22B1
:404700001A4202D080231B061843094A094BD3581B0402D080235B021843054A054BD25880235B029A4202D380239B02184370470000264004080000094B01225242802124
:4047400009015A5007495A505B680132FF321A4204D0034A5368FF218B4353607047C0460000264004080000FEE7000010B50268094B1A6042685A6082689A60C268DA60CE
:4047800002691A6142695A6182699A61C269DA61FFF7EAFF10BDC046C8080008F0B5C64600B5002833D019238B429B415B42314C22681668B027D25BB61832680325AA43BE
:4047C0002B401A43326026683268F65B92191768294E3740176027683A689046B2229446BF5A3A0042441768AF433B431360226813686446125B9B181A6832401A60002802
:4048000007D010291DD9212927D801201AE06423CAE7184B1B6859229A5C8A421FD25A229A5C8A421DD25B229A5C8A421BD25C229A5C8A4219D25D229B5C8B4217D30420ED
:4048400000E000200B4B1B685A6813680F218B430343136080BCB846F0BD0220F2E70020F0E70120EEE70220ECE70320EAE70520E8E7C046F80F0008FFFCFFFFB0235B057E
:404880005B78002B04D0B0235B055878C0B270472120FCE7B0235B059B89002B04D0B0235B05988980B2704780204000FBE70000074B1A683723D35C834200D801BE044B79
:4048C0001A68136ABE21525A504318187047C046F80F000870B5FFF7DDFF80235B0098421AD0B0204005174BC358174A1340174C21680A68A025495952181168C025AD0066
:4049000029400B43136022681368A42152589B180F4A82581A6070BD0C4C23681A68A0215B58D21813680F2083439E390B43136023681A68A4241B59D218136883430B43BF
:404940001360E8E748180000FFFCFFFFF80F00084418000070B5FFF79DFF80235B0098421AD0B0204005134BC358134A1340134C21680A68A025495952181168C025AD0044
:4049800029400B43136022681368A42152589B180B4A82581A6070BD084B1A681368A02152589B181968074A11408022D2010A431A60F0E750180000FFFCFFFFF80F0008BC
:4049C0004C180000FF8FFFFF10B5FFF763FF80235B00984212D0B02252050F4BD3580F4A13400F4A11680A68A020095852181168C020800001400B43136010BD084B1A684A
:404A00001368A02152589B181968064A1140C022D2010A431A60F0E71C180000FFFCFFFFF80F0008FF8FFFFF70B5FFF733FF80235B0098421BD0B0204005184BC358184A9B
:404A40001340184C21680A68A025495952181168C025AD0029400B43136022681368A42152589B18C122520182581A6070BD0D4C23681A68A0215B58D21813680F2083436C
:404A80009D390B43136023681A68A4241B59D218136883430B431360E8E7C04624180000FFFCFFFFF80F000870B5204B1A681368A02152589B181C68C0231B011C40FFF791
:404AC000E9FE80235B0098421FD0184908680368A02280581B181868154D284018600868036880581B181868C0252D012E00A6433043186009680B688A589B181868284061
:404B0000001B431E9841C0B270BD0020FEF7D8FA0400FFF7B3FE222803D8002C03D10120F2E70120F0E70020EEE7C046F80F0008FFF3FFFF30B500283CD0C368002B3BD064
:404B40000368002B3AD005791E4BAA00D258002A28D0140000E01A005369002B07D0824205D0197E027E9142F5D81C00F3E7824226D02369002B08D0636943610461002B5D
:404B800000D018616061012015E0027E237E9A42F2D244610023036120610A4BAD00E850012008E0074BAD00E850002343610361012000E0002030BD0020FCE70020FAE7B0
:404BC0000020F8E73810000810B5FBF752FE074B5968074C2140E82292010A435A605A6822405A605B68FBF748FE10BD00002640FF00FC0FF0B5C64600B50700012800D96F
:404C000001BEFFF73BFE0400FFF744FE06000020FEF756FA051E1BD180235B009E4205D0274D80235B009E4217D136E0222C38D8244B1B68586824494358244A1340984616
:404C40003A0680235B041A4043461343435000E01B4D80235B009E4225D00020FFF728FE040080235B009E4220D0002F24D0184A01212000FDF79CFF00280ED1114B1A68C2
:404C8000C023D3581B191B68002BF7DBE3681B0E1B06A0221206934210D0280080BCB846F0BD074DD5E7222CD7D8BAE7002F01D0084ADDE7084ADBE7084AD9E70500ECE73D
:404CC00004004200F80F000818F00000FFFFFFFE0300000C01010030010000300100000C074A084BD2581F231340B0214905E822D200885CC01A431E9841C0B27047C04658
:404D0000000026401CFF0000044B186880231B04184043425841C0B27047C0460000264010B5FFF7F1FF002810D01C4A13681C490B4013600820FFF7C3FC6423174A126860
:404D4000002A09DB002B07D0013BF7E7134A136814490B401360EDE7002B01D1124810BD0E4A136811490B4013600120FFF7A8FCFFF7CAFF002801D10020F0E7FFF7B0FF23
:404D8000012801D00020EAE7B0225205084BD158024A084BD1500020E1E7C04600002640FFFFFBACFFFFFBAD02004200FFFFFFFB10180000307F000010B5FFF7A5FF00286A
:404DC00008D0054B054A10681840C01A43425841C0B210BD024BF5E7000004530000264000000452F8B50400012800D901BEFFF75BFE002802D12C4D2800F8BDFBF739FDBF
:404E00000600002C15D1294A294B0021D150B0225205E823DB00D75CFFB20120FFF7EAFE051E03D03000FBF728FDE5E7FFF752FD19E0FFF7C1FF002823D01C4A1C4B5021E9
:404E4000D150B02252051B4BD75CFFB217491A4A8B581F208343143803438B500838FFF72FFCFFF777FD1148134943581F2293433A4013434350002C0BD1FFF7A5FD00252B
:404E8000D0E7B02252050D4BD158084A084BD150D7E70720FFF714FCFFF7C6FD0020FFF7A9FE0500BEE7C0460300420000002640307F0000410700001CFF000010180000D5
:404EC000024B58688003C00F7047C04600002640094B5B6CFF2212021340E8229201934200D0704704494A6C044B1A40E8239B0113434B64F5E7C04600002740FFC5FFDF51
:404F000004494A6C044B1A40E8239B0113434B647047C04600002740FF00FFFFF0B5D6464F464646C0B582B007000C0001921E00012B00D901BE80235B019F4200D301BE75
:404F4000264B1A687623D35A9B08013B244A134322009A4301D1630000D401BEF02212013B0063401D001540134207D01D4D280002B0E0BCBA46B146A846F0BDFBF779FC94
:404F80008046164B186881687423C35AC9187623C25A9308013B23409B009A467223C35A1C40240A6243130053445B181A68920A9102FF223A40019800280DD08024640072
:404FC000224376028024A400264032430A431A604046FBF752FCCAE72C00F1E7F80F0008000F00400100CE00F0B5C64600B504000E001500012A00D901BE234B1A68762369
:40500000D35A9B08013B214A134322009A4304D11F4B22001A409A4200D001BE1A4B1A683323D35C1F2B03D81A4880BCB846F0BDFBF71FFC144B1F68B9687423FB5AC918C3
:405040007623FA5A9308013B23409B0098467223FF5A3C40240A6243130043445B181A680D490A40002E0CD00224FF346D02802189000D4025432A431A60FBF7FEFB002081
:40508000D3E70124F2E7C046F80F0008001F0040001000400100CE00FFFCFFFF70B504001A4B1A687623D35A9B08013B184A134302009A4304D1174B02001A409A4200D021
:4050C00001BE124B1A683323D35C1F2B01D8124870BDFBF7CEFB0D4B1A6891687423D35AC9187623D35A9D08013D7226925B2240120A53432C40A4001B195B181A680749E5
:405100000A401A60FBF7B9FB0020E1E7F80F0008001F0040001000400100CE00FEFCFFFF0749C02252008B589B009B088020C00503438B50885880231B0603438B507047F1
:4051400000002640002243088B4274D303098B425FD3030A8B4244D3030B8B4228D3030C8B420DD3FF22090212BA030C8B4202D31212090265D0030B8B4219D300E0090AF3
:40518000C30B8B4201D3CB03C01A5241830B8B4201D38B03C01A5241430B8B4201D34B03C01A5241030B8B4201D30B03C01A5241C30A8B4201D3CB02C01A5241830A8B4245
:4051C00001D38B02C01A5241430A8B4201D34B02C01A5241030A8B4201D30B02C01A5241CDD2C3098B4201D3CB01C01A524183098B4201D38B01C01A524143098B4201D3B9
:405200004B01C01A524103098B4201D30B01C01A5241C3088B4201D3CB00C01A524183088B4201D38B00C01A524143088B4201D34B00C01A5241411A00D2014652411046C6
:405240007047FFE701B5002000F006F802BDC0460029F7D076E770477047C0461C2101231B04984201D3000C10391B0A984201D3000A08391B09984201D30009043902A2EA
:40528000105C40187047C04604030202010101010000000000000000002B11D1002A0FD1002900D1002802D00021C943080007B4024802A14018029003BDC0469DFFFFFF2C
:4052C00003B4684601B5029800F034F8019B9E4602B00CBC7047C046F0B5CE469946030C9C46130447461B0C1D000E0061460404240C80B50700100C4B4365434143604313
:405300002C0CC01824188C46A34203D980235B029846C444494679435643230C2D042D0C8919634424046019C918C0BCB946B046F0BDC046F0B557464E464546DE46E0B522
:4053400004000D009246994683B08B4230D82DD04946504600F0BAF829000600200000F0B5F8331A9846203B34D49B4653465A46934042461F00534693401E00AF423BD8FD
:40538000AF4200D179E05B46A41BBD41002B00DA76E0002200230092019301235A4693400193012342469340009329E08242CFD900220023009201930C9B002B01D01C6072
:4053C0005D600098019903B0F0BCBB46B246A946A046F0BD42469B4620239B1A5246DA40414613004A468A40170042461F43534693401E00AF42C3D900220023009201935A
:405400004346002BD8D0FB0772081A4346467B080EE0AB4201D1A2420CD8A41A9D41012024196D410021013E24184D41002E06D0AB42EED9013E24196D41002EF8D1009870
:4054400001995B4600196941002B24DB2B005A464646D3402A001C00F2405B461500002B2ADB26009E40330026004746BE403200801A9941009001919EE7A342BCD882E725
:405480004246202300219B1A0022009101920122DA40019285E7424620239B1A2A0046469A402300F340464613432A001C00F2405B461500002BD4DA202342462F009B1BCA
:4054C00097402600DE403B003343CDE710B5002903D1FFF7C3FE203002E00800FFF7BEFE10BDC04630B500240139A24201D1002005E0035D01340D5DAB42F6D0581B30BDE4
:4055000010B5884202D98B18984208D300239A4207D0CC5CC4540133F9E78B5C8354013AFBD210BD03008218934200D1704719700133F9E7002310B59A4200D110BDCC5CCB
:40554000C4540133F8E70000F8B5C046F8BC08BC9E467047F8B5C046F8BC08BC9E46704701B40248844601BC604700BFD9050008030000000100000001000000000000009D
:4055800005036000040000000100000000000000010000000604600008000000680D00088108001005010000050002001D00000017040000000000000800000008000000A0
:4055C00000020000000000000000000000000000000000000000000000000000000000000B0000003F000000000000003F000000000000000B0E0100010000000000000005
:4056000000000000000000000000000000000000000000000100000000000000000000000000000000000000000000000B0E0000010000000000000000000000000000004F
:405640000000000000000000000000000100000000000000000000000000000000000000000000000B070100010000000600000012000000000000000000000000000000FD
:40568000000000000100000000000000000000000000000000000000000000000B0700000100000008000000120000000000000000000000000000000000000001000000BB
:4056C00000000000000000000000000000000000000000000B060700010000000B0000001D0000000000000000000000000000000000000001000000000000000000000068
:405700000000000000000000000000000B060600010000000A0000001D00000000000000000000000000000000000000010000000000000000000000000000000000000029
:40574000000000000B0001000B0000002401030000000000F40100001400040104000905080003006301000004040000040300000402000004010000040000008E16001089
:40578000C0160010C0160010C0160010A6160010C0160010A0160010C0160010C0160010C0160010C0160010BA160010C0160010C0160010C0160010C0160010C0160010C9
:4057C000C0160010C016001088160010C0160010C016001094160010C01600107C16001082160010C0160010B41600100000000000020501000000006FC75E10DE8EBD20C4
:40580000B149E330BC1D7B41D3DA25516293C6610D549871783BF68217FCA892A6B54BA2C97215B2C4268DC3ABE1D3D31AA830E3756F6EF30000041900010519000034194C
:405840000001351900005B1900015C1900000018000101180002041800030518000410180005111800081618000917180006181800071918000A2818000B2918000C34185B
:40588000000D3518000E3818000F391800104018001141180012481800134918001450180015511800165818001759180000000100010001020304050607000102030405E3
:4058C0000607000102030405060708090A0B000001020304050607000102030405060708090A0B0C0D000102030405060001020000000001000102030405060708090A0B87
:405900000C0D000102030405060708090A0B0C0D0001020304050607870A050506060000000000000000858585858585858580808080808080808080808082010101010181
:405940000101018181818181818181818181818181838383838383838484840809070404020202020202020202020202020203030303030303030303030303038686868677
:4059800086868686430000001112131415161718A3A4A5A6A7A8A9AA010203007E7D0000000000004D0000007C750000000000000000000000000000766F777078717972D5
:4059C0007A737B7400040000008B7F978C80988D81998E829A0000000000000000000000008F839B90849C91859D92869E93879F9488A09589A1968AA20000000000000075
:405A000000000000000000000000000000000000000000000000000000000000000000000000000000000000004E4F505152535455565758595A5B5C5D5E5F606162636467
:405A400065666700004B4C00008B7F978C80988D81998E829A0000000000000000000000008F839B90849C91859D92869E93879F9488A09589A1968AA2000000000000000B
:405A800000000000000000000000000000000000000000000000000000000000000000000000000000000000000000000000000000000000004E4F50515253545556575855
:405AC000595A5B5C5D5E5F606162636465666700004B4C0000050600008F839B90849C91859D92869E93879F9488A09589A1968AA27E7D0000090A0B0C0D0E0F1011121313
:405B00001415161718191A1B1C1D1E1F202122232425262728292A2B2C2D2E2F303132333435363738393A3B3C3D3E3F4041428B7F978C80988D81998E829A0000000000EA
:405B4000000000000000008F839B90849C91859D92869E93879F9488A09589A1968AA200000000000000000000000000000000000000000000000000000000000000000069
:405B80000000000000000000000000000000000708000068766F6977706A78716B79726C7A736D7B746E7C750000000000000000000000000000000000007E7DA3A4A5A6EF
:405BC000A7A8A9AA000000000049484A4D4E4F505152535455565758595A5B5C5D5E5F60616263646566670000464705064B4C044344450000090A0B0C0D0E0F1011121311
:405C00001415161718191A1B1C1D1E1F202122232425262728292A2B2C2D2E2F303132333435363738393A3B3C3D3E3F4041428B7F978C80988D81998E829A0000000000E9
:405C4000000000000000008F839B90849C91859D92869E93879F9488A09589A1968AA200000000000000000000000000000000000000000000000000000000000000000068
:405C80000000000000000000000000000000000708000068766F6977706A78716B79726C7A736D7B746E7C750000000000000000000000000000000000007E7DA3A4A5A6EE
:405CC000A7A8A9AA000000000049484A4D464705064B4C044344450000262728292A2B2C2D8B7F978C80988D81998E829A0000000000000000000000008F839B90849C910B
:405D0000859D92869E93879F9488A09589A1968AA20708000068766F6977706A78716B79726C7A736D7B746E7C750000000000000000000000000000000000007E7DA3A4EA
:405D4000A5A6A7A8A9AA00000000004D495C5D5E5F6061626364656667000046474B4C0400090A0B0C0D0E0F108B7F978C80988D81998E829A0000000000000000000000EC
:405D8000008F839B90849C91859D92869E93879F9488A09589A1968AA20708000068766F6977706A78716B79726C7A736D7B746E7C750000000000000000000000000000BE
:405DC000000000007E7DA3A4A5A6A7A8A9AA00000000004D494E4F505152535455565758595A5B05064B4C0400090A0B0C0D0E0F10262728292A2B2C2D00000000000000E9
:405E00000000000000000000000000000000000000000000000000000000000000000000000000000000000000070800004A5C5D5E5F606162636465666700004B4C0400DC
:405E400000090A0B0C0D0E0F10262728292A2B2C2D8B7F978C80988D81998E829A8F839B90849C91859D92869E93879F9488A09589A1968AA2000000000000000000000020
:405E800000070800004E4F505152535455565758595A5B050646470000000000000000000000000101010101010101005700570088008800E300FF001B0003008B007F00CC
:405EC00002000C000E000100070003000800080001000000DC18001010190010D418001006190010E0180010E4180010E8180010EC180010F01800103C1E00105C1E0010BE
:405F0000601E00105C1E00105C1E0010401E0010441E00105C1E00104C1E00105C1E00105C1E00105C1E00105C1E00105C1E0010501E00105C1E0010541E00105C1E001015
:405F40005C1E00105C1E00105C1E00105C1E00105C1E0010581E0010481E00109C1E0010AC1E0010B01E0010AC1E0010AC1E00109C1E0010A01E0010AC1E0010A41E0010F9
:405F8000AC1E0010AC1E0010AC1E0010AC1E0010AC1E00109C1E0010AC1E00109C1E0010AC1E0010AC1E0010AC1E0010AC1E0010AC1E0010AC1E0010A81E00109C1E001075
:405FC0000000010001000100020002002F003000300032006F006F00E700E700E700E700E800E800EA00EC00EC00EC00ED00EE00F400F500F500010101010101000004001E
:4060000000000000000000000000000000000800100018002000280030003800400048005000580060006800700078000000000000001D0000000000000004000C000E0065
:406040000F001000110012001300140015001600170018001D001E001F002000210026002700280029002A002B002C00000000000000000000000000E80F000800000000A4
:40608000000000000A0000000000204000002440000000400000000000002340000030400000314000009F40000022400000104000009D40202020202020202020131010CD
:4060C000101D208017007500FF03050105001C03100000003FC0000000040000000000000019324B647D0000000000804000080B100000000000FF012002001F00800004E9
:40610000FF081018001000140018001C4044484C50000000081000000800000004000000041000000012000004210000002100000016000040114002C41300138013A01307
:4061400040138813A81320001C00000000000000E4F1FF7F010000000000001000040008800000007861001080040008E8030000080900084407000002020400A00F0000CF
:4061800000093D0000093D0000127A0000093D00514000100100000000000000E80E00080000000000000000FF000000405E0010E85D0010605D0010D85C0010F45B00106F
:4061C000F45A0010D85A0010D45A0010485A0010C8590010C4590010B8590010A8590010A45900109C59001098590010905900108859001084590010890700008907000075
:40620000F5000010C900001010B50004440B002827D0144B1A68136ABE21515ACA00521A9B181B68002BF4DA0F4B3E221A600F4B0F4A1A600F4BA322D200062199500E4A42
:406240009C509B58074B1A68136AB831515ACA00521A9B1800225A60064A074BD358002BFADA10BDF80F000804012640080126401E1F0000000026401C05000010B54378CF
:40628000FF2B00D010BD00F023F90400032000F03FF9C2680A4B1A600A4B002119600A4B013119605268094B1A6013680B4313601368DB07FCD4200000F03AF9E2E7C046D1
:4062C000081000080410000800100008FC0F0008F0B5C64600B582B000900191002000F017F90600464B1B68C0229F583F186C3A9B5C002B61D000F0F3F80500032812D02D
:4063000000F0E6F880463F4A3F4BD358002BFADA3D4BD358002B31DB3C4C032D46D0404600F006F961E0062000F0F2F8344B1A68C023D3581B181B68002B5DDB002000F0E6
:4063400007F9334B984259D0324B1A6800230021012000F0F5F8041E02D02C4C45E00134002000F0F5F82A4B984202D02A4B9C42F5D9294B9C42C3D9244C36E0274A01214F
:40638000300000F0BDF8002801D0204CC5E70198FFF73AFF009B002B06D03B68002BFCDB00F0A6F80400B8E71D4CB6E70121002000F0B6F80028F9D1B1E700F089F80500D7
:4063C000164A0121300000F09BF8002809D1009B002B0FD03B68002BFCDB00F089F8040000E00A4C280000F0A3F8200002B080BCB846F0BD0A4CF5E7044CF6E7034CF4E77C
:40640000F80F0008000026401C05000005005200010188001C100008EF4902000C10000801005000F0B5C64600B5204B1B6859681F4A1369042423431361BFF34F8F01284D
:4064400031D030BF1A4A136904208343136186235B00CB58002B23D1164C2768164BA320C0001E58154A90461568154A226006241C503E2042461060124A063098500E4A0C
:40648000104BD358002BFADA86235B000E4ACA50084B1F60084AA323DB00D650074B1D6080BCB846F0BD20BFCCE7C046F80F000800ED00E00801264000002640040126408C
:4064C0001E1F00001C050000AAAAAAAA0000000001B40248844601BC604700BF7308001001B40248844601BC604700BFBD09001001B40248844601BC604700BF9D2700109D
:4065000001B40248844601BC604700BFB12B001001B40248844601BC604700BFB126001001B40248844601BC604700BFF12F001001B40248844601BC604700BF7B08001015
:4065400001B40248844601BC604700BF712D001001B40248844601BC604700BF793000100000000000000000000000000000000000000000000000000000000000000000DC
:4065800000000000000000000000000000000000000000000000000000000000000000000000000000000000000000000000000000000000000000000000000000000000DB
:4065C000000000000000000000000000000000000000000000000000000000000000000000000000000000000000000000000000000000000000000000000000000000009B
:020000041001E9
:4000000000F803089D5C01100D000000115D0110115D0110115D0110115D011000000000000000000000000000000000917401100D5D011000000000317501102D740110B0
:400040000D5D0110000000000D5D01100D5D0110000000000D5D01100D5D01100D5D01100D5D01100D5D01100D5D01100D5D01100D5D0110000000000D5D01100D5D011041
:400080000D5D01100D5D01100D5D01100D5D01100D5D01100D5D01100D5D01100D5D01100D5D01100D5D01100D5D01100D5D01100D5D01100D5D01100D5D01100D5D011090
:4000C0000D5D01100D5D01100D5D01100D5D01100D5D01100D5D01100D5D01100D5D01100D5D01100D5D01100D5D01100D5D01100D5D0110000000000000000000000000C1
:400100000000000000000000000000000D5D01100D5D01100D5D011000000000000000000D5D01100D5D01100D5D01100D5D01100D5D01100D5D01100D5D01100D5D011076
:400140000D5D01100D5D01100D5D01100D5D01100D5D01100D5D01100D5D01100D5D01100D5D01100D5D01100D5D01100D5D01100D5D01100D5D01100D5D01100D5D0110CF
:400180000D5D01100D5D01100D5D01100D5D01100D5D01100D5D01100D5D01100D5D01100D5D01100D5D01100D5D01100D5D01100D5D01100D5D01100D5D01100D5D01108F
:4001C0000D5D01100D5D01100D5D01100D5D01100D5D01100D5D01100D5D01100D5D01100D5D01100D5D01100D5D01100D5D01100D5D01100D5D01100D5D01100D5D01104F
:400200000D5D01100D5D01100D5D01100D5D01100D5D01100D5D01100D5D01100D5D01100D5D01100D5D01100D5D01100D5D01100D5D01100D5D01100D5D01100000000089
:400240000000000000000000000000000D5D01100D5D01100D5D01100D5D01100D5D01100D5D01100D5D01100D5D01100000000000000000000000000000000000000000A6
:4002800000000000000000000000000000000000000000000000000000000000000000000000000000000000000000000D5D011000000000000000000000000000000000C3
:4002C0000D5D01100D5D01100D5D01100D5D01100D5D01100D5D011000000000000000000D5D01100D5D01100D5D01100D5D01100D5D01100D5D01100348044B834202D009
:40030000034B03B1184770478036000880360008000000000548064B1B1AD90F01EBA301491002D0034B03B11847704780360008803600080000000010B5064C237843B971
:40034000FFF7DAFF044B13B10448AFF300800123237010BD78370008000000001C39041008B5054B1BB105490548AFF30080BDE80840FFF7CFBF00BF000000007C37000808
:400380001C39041010B582B0002402E00134082C13D064220DF107010B480CF0B5F90028F7D10A4B195D9DF807309942EED0DE2B01D00446EBE70124E9E70A2008F022FBB8
:4003C000002006F0A5FFE4E7E8B50208844D021030B583B0002306220121532009F072FF294805F045FB24A3D3E90023274805F03FFB23A3D3E900233B21254805F038FB0C
:4004000005F0E4F818B1234805F032FBFEE7224805F02EFB214805F02BFB0022204BCDE90023204805F024FB642008F0EBFA002401940223009323464FF480521A491B48AC
:4004400008F0FAF801940125009523464FF480621749184808F0F0F80194009523464FF400721549154808F0E7F8204608F084FE03B030BDAFF3008000000080F2C1BC3F6A
:4004800000000080CB821A408C4D0210B84D0210D44D0210F44D0210144E02103C4E021000001040684E0210984E0210D1570110A04E0210C1040110A84E021085030110BD
:4004C00070B5B0B040F6B83008F09CFA29AC204605F042F826AE32460021204605F040FA0DF19E020121204605F03AFA0AAC204605F04EF8014601AD2A46204605F00EF9F2
:400500000446304605F0D0FA2146284605F07CFB014805F001FBD5E7B44E021000B583B005F0DEFC00B101BE62B613480AF0DCF912480AF0D9F912480AF0D6F94FF4E133E8
:400540000093FF231A46382139200EF04FFF00B101BE05F07FFA00230193032200924FF480620849084808F067F8084812F05EFD08F096F8FEE700BFC0510210D0510210D2
:40058000CC510210BC4E0210D1030110C44E0210074B084ADA6001215960BFF35F8F02F19C4202F5051202F2D2221A60704700BF9837000880002002F0B41B4D1B4A2E6857
:4005C0001B4C00239642236027D16A6842B3194EB268012A03D9AF68551EAF421DD002F0010246F2400C0CFB02631D6901351D61BFF35F8F524202EA0C02C3E9050102F175
:400600001801103216440C4A26604FF6FF74545200229A770120F0BC70471846F0BC70471046F0BC704700BF883600084352455194370008983700089C370008154B1B6882
:4006400033B3012824D810B51C182173F9B9F2B1404200F4405043301844941C34F8113032F811C0C3F30B03CCF30B0C4FEA031E02314EEA1C2E1B09B1F5005F00F803CC07
:4006800000F802EC00F8013C00F10300E6D110BD704700BF9437000870B5194D2E686EB360B314462AB149B3042A28BF042404EBC4020368D0F804C0C6F814C0336103893D
:4006C000807AB076338306F11B0012F091FEB473BFF35F8F2A68136801331360BFF35F8F0848094B826859680132826001B1013959605A6802B91A6000232B6070BD00BFCC
:40070000943700089837000888360008072900D901BE012A04D901BE01238B4083607047002AF9D101238B404360704708B503460A4677280AD8C10806480068806900EBCA
:40074000C11003F00701FFF7E1FF08BD014909688869F6E790B5020800B583B0002301930A4B186810B101A907F031FB019B4BB14FF0E0234FF08052C3F8042DBFF34F8FD1
:40078000BFF36F8F03B05DF804FB00BF28F8000800B583B0002301930A4B186810B101A907F015FB019B4BB14FF0E0234FF08052C3F8042DBFF34F8FBFF36F8F03B05DF896
:4007C00004FB00BF2CF80008002800F00A8110B586B0044603220021012007F0D1FD824B186003220021012007F0CAFD7F4B18607F4805F03DF9002304930393082202924F
:400800000193FF23009312231122102179480BF089F80146002876D1774B19688A6902F5807291F88700815821F00101815019688A6902F5807291F88700815841F440310B
:40084000815019688A6902F5807291F88700815821F0040181501A68936903F5807392F88710CA5842F44012CA50644961480AF069FF00284DD1012306221946132009F057
:4008800021FD012306221946142009F01BFD012306221946172009F015FD01211720FFF745FF01200BF060FA00211720FFF73EFF01200BF059FA01211720FFF737FF0A208B
:4008C0000BF052FA4E4805F0D3F832200BF04CFA01211420FFF72AFF4A48464BC3601323037417234374FF2380F82030002200F10C010EF029FE014680B121B3424805F075
:40090000B7F8012003E0414805F0B2F8012006B010BD3F4805F0ACF80120F8E726223D4938480EF0FDFE01460028E7D100230193394B0093237815224FF4005131480EF0FF
:4009400099FF0146D9E7354805F092F832200BF00BFA01211320FFF7E9FE0A200BF004FA2F4805F085F832200BF0FEF92D48214BC3601423037417234374FF2380F820307B
:40098000002200F10C010EF0DFFD014630B92622204924480EF0C4FE014620B1224805F067F80120B3E700230193204B0093237816224FF400511B480EF05CFF0146002858
:4009C000ECD11B4805F054F832200BF0CDF901211320FFF7ABFE01211420FFF7A7FE002095E70220704700BF2CF8000828F80008E44E021078F8000890B50208001BB70039
:400A0000484F021054F80008644F0210FC4E0210284F0210A050021091070110844F0210A84F021030F80008C44F021059070110E44F0210012818D810B568B90C4B186895
:400A40000C4C002107F0DCFA012120460EF0A0FE014628B9002010BD074B1868074CF0E7074805F005F80420F5E70220704700BF2CF8000854F8000828F8000830F800084A
:400A80000850021071B370B514460E4601282BD8A8B9164B1868164D40F6B83107F0B0FA012810D12246314628460EF0BAFD0446002128460EF06CFE74B9002070BD0D4B25
:400AC00018680D4DE8E70D4804F0D2FF002128460EF05EFE0320F1E72146094804F0C8FF0120EBE7022070470220E7E72CF8000854F8000828F8000830F8000824500210C2
:400B000044500210002865D0F8B5334E33782DED048B0446002B53D13048802106F0ACFB20B92F48202105F033FF18B1BDEC048B0120F8BD2B4F9FED2C9ADFED2C8A0023E1
:400B400047F8043B0125B6EE008A07EE905AF8EEE77A013567EE897AC7EEA87A17EE900A0EF0EAFF07EE100AF0EE487AE7EE487A802DE7EC017AE8D11D4F9FED1B9A0023C8
:400B800047F8043B0125F3EE0F8AB6EE008A07EE905AF8EEE77A013567EE897AC7EEA87A17EE900A0EF0C8FF07EE100AF0EE487AE7EE487A202DE7EC017AE8D10123337099
:400BC00041F278020021204612F018FBBDEC048B0020F8BD02207047F4F80008887701087877010878750108DB0FC9400000FE42F87401082DE9F04F2DED088BAFB004903F
